{"abi":[{"type":"constructor","inputs":[],"stateMutability":"nonpayable"},{"type":"function","name":"get_mrtd","inputs":[{"name":"rootfs_hash","type":"bytes","internalType":"bytes"},{"name":"mrtd","type":"bytes","internalType":"bytes"},{"name":"rtmr0","type":"bytes","internalType":"bytes"},{"name":"rtmr3","type":"bytes","internalType":"bytes"}],"outputs":[{"name":"","type":"bool","internalType":"bool"}],"stateMutability":"view"},{"type":"function","name":"rtmrs","inputs":[{"name":"","type":"bytes32","internalType":"bytes32"}],"outputs":[{"name":"","type":"bool","internalType":"bool"}],"stateMutability":"view"},{"type":"function","name":"set_mrtd","inputs":[{"name":"rootfs_hash","type":"bytes","internalType":"bytes"},{"name":"mrtd","type":"bytes","internalType":"bytes"},{"name":"rtmr0","type":"bytes","internalType":"bytes"},{"name":"rtmr3","type":"bytes","internalType":"bytes"},{"name":"status","type":"bool","internalType":"bool"}],"outputs":[],"stateMutability":"nonpayable"},{"type":"event","name":"SetMRTD","inputs":[{"name":"rootfs_hash","type":"bytes","indexed":false,"internalType":"bytes"},{"name":"mrtd","type":"bytes","indexed":false,"internalType":"bytes"},{"name":"rtmr0","type":"bytes","indexed":false,"internalType":"bytes"},{"name":"rtmr3","type":"bytes","indexed":false,"internalType":"bytes"},{"name":"status","type":"bool","indexed":false,"internalType":"bool"}],"anonymous":false}],"bytecode":{"object":"0x6080604052348015600e575f5ffd5b505f80546001600160a01b031916331790556105768061002d5f395ff3fe608060405234801561000f575f5ffd5b506004361061003f575f3560e01c80635a986bc814610043578063b77ea52314610079578063d38f6a831461008e575b5f5ffd5b610065610051366004610204565b60016020525f908152604090205460ff1681565b604051901515815260200160405180910390f35b61008c6100873660046102ba565b6100a1565b005b61006561009c36600461038b565b610184565b5f546001600160a01b031633146100b6575f5ffd5b84516020146100c3575f5ffd5b83516030146100d0575f5ffd5b82516030146100dd575f5ffd5b81516030146100ea575f5ffd5b8060015f87878787604051602001610105949392919061045b565b6040516020818303038152906040528051906020012081526020019081526020015f205f6101000a81548160ff0219169083151502179055507f850f88177ad0cea743a1013bd599582a6694d5ee8e0b313dfeb53c1b884e41c385858585856040516101759594939291906104b9565b60405180910390a15050505050565b5f8451602014610192575f5ffd5b835160301461019f575f5ffd5b82516030146101ac575f5ffd5b81516030146101b9575f5ffd5b60015f868686866040516020016101d3949392919061045b565b60408051808303601f190181529181528151602092830120835290820192909252015f205460ff1695945050505050565b5f60208284031215610214575f5ffd5b5035919050565b634e487b7160e01b5f52604160045260245ffd5b5f82601f83011261023e575f5ffd5b813567ffffffffffffffff8111156102585761025861021b565b604051601f8201601f19908116603f0116810167ffffffffffffffff811182821017156102875761028761021b565b60405281815283820160200185101561029e575f5ffd5b816020850160208301375f918101602001919091529392505050565b5f5f5f5f5f60a086880312156102ce575f5ffd5b853567ffffffffffffffff8111156102e4575f5ffd5b6102f08882890161022f565b955050602086013567ffffffffffffffff81111561030c575f5ffd5b6103188882890161022f565b945050604086013567ffffffffffffffff811115610334575f5ffd5b6103408882890161022f565b935050606086013567ffffffffffffffff81111561035c575f5ffd5b6103688882890161022f565b9250506080860135801515811461037d575f5ffd5b809150509295509295909350565b5f5f5f5f6080858703121561039e575f5ffd5b843567ffffffffffffffff8111156103b4575f5ffd5b6103c08782880161022f565b945050602085013567ffffffffffffffff8111156103dc575f5ffd5b6103e88782880161022f565b935050604085013567ffffffffffffffff811115610404575f5ffd5b6104108782880161022f565b925050606085013567ffffffffffffffff81111561042c575f5ffd5b6104388782880161022f565b91505092959194509250565b5f81518060208401855e5f93019283525090919050565b5f61048161047b61047561046f858a610444565b88610444565b86610444565b84610444565b9695505050505050565b5f81518084528060208401602086015e5f602082860101526020601f19601f83011685010191505092915050565b60a081525f6104cb60a083018861048b565b82810360208401526104dd818861048b565b905082810360408401526104f1818761048b565b90508281036060840152610505818661048b565b9150508215156080830152969550505050505056fea2646970667358221220f518f5e956e9de4404dfed2c9c2c661e73afd2e573cabdb570100916862bd28864736f6c637828302e382e32382d646576656c6f702e323032352e322e31332b636f6d6d69742e39363462353035320059","linkReferences":{}},"methodIdentifiers":{"get_mrtd(bytes,bytes,bytes,bytes)":"d38f6a83","rtmrs(bytes32)":"5a986bc8","set_mrtd(bytes,bytes,bytes,bytes,bool)":"b77ea523"},"id":18}